{
  "contractName": "ZLFlashLoan",
  "abi": [
    {
      "inputs": [
        {
          "internalType": "address",
          "name": "poolAddressProvider_",
          "type": "address"
        }
      ],
      "stateMutability": "nonpayable",
      "type": "constructor"
    },
    {
      "anonymous": false,
      "inputs": [
        {
          "indexed": false,
          "internalType": "uint256",
          "name": "blockNumber",
          "type": "uint256"
        },
        {
          "indexed": true,
          "internalType": "address",
          "name": "_assetAddress",
          "type": "address"
        },
        {
          "indexed": false,
          "internalType": "uint256",
          "name": "amount",
          "type": "uint256"
        }
      ],
      "name": "LogArbitrage",
      "type": "event"
    },
    {
      "anonymous": false,
      "inputs": [
        {
          "indexed": true,
          "internalType": "address",
          "name": "_from",
          "type": "address"
        },
        {
          "indexed": true,
          "internalType": "address",
          "name": "_assetAddress",
          "type": "address"
        },
        {
          "indexed": false,
          "internalType": "uint256",
          "name": "amount",
          "type": "uint256"
        }
      ],
      "name": "LogWithdraw",
      "type": "event"
    },
    {
      "anonymous": false,
      "inputs": [
        {
          "indexed": true,
          "internalType": "address",
          "name": "previousOwner",
          "type": "address"
        },
        {
          "indexed": true,
          "internalType": "address",
          "name": "newOwner",
          "type": "address"
        }
      ],
      "name": "OwnershipTransferred",
      "type": "event"
    },
    {
      "stateMutability": "payable",
      "type": "fallback",
      "payable": true
    },
    {
      "inputs": [],
      "name": "ADDRESSES_PROVIDER",
      "outputs": [
        {
          "internalType": "contract IPoolAddressesProvider",
          "name": "",
          "type": "address"
        }
      ],
      "stateMutability": "view",
      "type": "function",
      "constant": true
    },
    {
      "inputs": [],
      "name": "POOL",
      "outputs": [
        {
          "internalType": "contract IPool",
          "name": "",
          "type": "address"
        }
      ],
      "stateMutability": "view",
      "type": "function",
      "constant": true
    },
    {
      "inputs": [],
      "name": "_currentTask",
      "outputs": [
        {
          "internalType": "uint256",
          "name": "_blockNumber",
          "type": "uint256"
        },
        {
          "internalType": "uint256",
          "name": "_loanAmount",
          "type": "uint256"
        },
        {
          "internalType": "uint256",
          "name": "_loanFee",
          "type": "uint256"
        },
        {
          "internalType": "address",
          "name": "_loanAsset",
          "type": "address"
        }
      ],
      "stateMutability": "view",
      "type": "function",
      "constant": true
    },
    {
      "inputs": [],
      "name": "owner",
      "outputs": [
        {
          "internalType": "address",
          "name": "",
          "type": "address"
        }
      ],
      "stateMutability": "view",
      "type": "function",
      "constant": true
    },
    {
      "inputs": [],
      "name": "renounceOwnership",
      "outputs": [],
      "stateMutability": "nonpayable",
      "type": "function"
    },
    {
      "inputs": [
        {
          "internalType": "address",
          "name": "newOwner",
          "type": "address"
        }
      ],
      "name": "transferOwnership",
      "outputs": [],
      "stateMutability": "nonpayable",
      "type": "function"
    },
    {
      "stateMutability": "payable",
      "type": "receive",
      "payable": true
    },
    {
      "inputs": [
        {
          "internalType": "address",
          "name": "asset_",
          "type": "address"
        }
      ],
      "name": "withdraw",
      "outputs": [],
      "stateMutability": "nonpayable",
      "type": "function"
    },
    {
      "inputs": [
        {
          "internalType": "address",
          "name": "loanAsset_",
          "type": "address"
        },
        {
          "internalType": "uint256",
          "name": "loanAmount_",
          "type": "uint256"
        },
        {
          "internalType": "address[]",
          "name": "routers_",
          "type": "address[]"
        },
        {
          "internalType": "enum ZLFlashLoan.RouterType[]",
          "name": "routerTypes_",
          "type": "uint8[]"
        },
        {
          "internalType": "address[]",
          "name": "outputAssets_",
          "type": "address[]"
        }
      ],
      "name": "doTask",
      "outputs": [],
      "stateMutability": "nonpayable",
      "type": "function"
    },
    {
      "inputs": [
        {
          "internalType": "address",
          "name": "asset_",
          "type": "address"
        },
        {
          "internalType": "uint256",
          "name": "amount_",
          "type": "uint256"
        },
        {
          "internalType": "uint256",
          "name": "premium_",
          "type": "uint256"
        },
        {
          "internalType": "address",
          "name": "initiator_",
          "type": "address"
        },
        {
          "internalType": "bytes",
          "name": "params_",
          "type": "bytes"
        }
      ],
      "name": "executeOperation",
      "outputs": [
        {
          "internalType": "bool",
          "name": "",
          "type": "bool"
        }
      ],
      "stateMutability": "nonpayable",
      "type": "function"
    },
    {
      "inputs": [],
      "name": "performTask",
      "outputs": [
        {
          "internalType": "bool",
          "name": "",
          "type": "bool"
        }
      ],
      "stateMutability": "nonpayable",
      "type": "function"
    },
    {
      "inputs": [
        {
          "internalType": "address",
          "name": "router_",
          "type": "address"
        },
        {
          "internalType": "enum ZLFlashLoan.RouterType",
          "name": "routerType_",
          "type": "uint8"
        },
        {
          "internalType": "address",
          "name": "inputAsset_",
          "type": "address"
        },
        {
          "internalType": "uint256",
          "name": "inputAmount_",
          "type": "uint256"
        },
        {
          "internalType": "address",
          "name": "outputAsset_",
          "type": "address"
        },
        {
          "internalType": "uint256",
          "name": "outputAmount_",
          "type": "uint256"
        }
      ],
      "name": "performSwap",
      "outputs": [
        {
          "internalType": "uint256",
          "name": "inputRest_",
          "type": "uint256"
        },
        {
          "internalType": "uint256",
          "name": "output_",
          "type": "uint256"
        }
      ],
      "stateMutability": "nonpayable",
      "type": "function"
    }
  ],
  "bytecode": "0x60c06040523480156200001157600080fd5b506040516200340b3803806200340b833981810160405281019062000037919062000279565b808073ffffffffffffffffffffffffffffffffffffffff1660808173ffffffffffffffffffffffffffffffffffffffff16815250508073ffffffffffffffffffffffffffffffffffffffff1663026b1d5f6040518163ffffffff1660e01b8152600401602060405180830381865afa158015620000b8573d6000803e3d6000fd5b505050506040513d601f19601f82011682018060405250810190620000de919062000279565b73ffffffffffffffffffffffffffffffffffffffff1660a08173ffffffffffffffffffffffffffffffffffffffff16815250505060016000819055506200013a6200012e6200014160201b60201c565b6200014960201b60201c565b50620002ab565b600033905090565b6000600160009054906101000a900473ffffffffffffffffffffffffffffffffffffffff16905081600160006101000a81548173ffffffffffffffffffffffffffffffffffffffff021916908373ffffffffffffffffffffffffffffffffffffffff1602179055508173ffffffffffffffffffffffffffffffffffffffff168173ffffffffffffffffffffffffffffffffffffffff167f8be0079c531659141344cd1fd0a4f28419497f9722a3daafe3b4186f6b6457e060405160405180910390a35050565b600080fd5b600073ffffffffffffffffffffffffffffffffffffffff82169050919050565b6000620002418262000214565b9050919050565b620002538162000234565b81146200025f57600080fd5b50565b600081519050620002738162000248565b92915050565b6000602082840312156200029257620002916200020f565b5b6000620002a28482850162000262565b91505092915050565b60805160a05161312c620002df60003960008181610362015281816106e70152610e7d01526000610292015261312c6000f3fe6080604052600436106100a05760003560e01c80637535d246116100645780637535d2461461017f5780638da5cb5b146101aa578063993dfd7b146101d5578063e5d6f8ce14610213578063f2cf64e31461023e578063f2fde38b14610267576100a7565b80630542975c146100a95780631b11d0ff146100d45780633278de021461011157806351cff8d91461013f578063715018a614610168576100a7565b366100a757005b005b3480156100b557600080fd5b506100be610290565b6040516100cb9190611dfa565b60405180910390f35b3480156100e057600080fd5b506100fb60048036038101906100f69190611f02565b6102b4565b6040516101089190611fb7565b60405180910390f35b34801561011d57600080fd5b50610126610414565b6040516101369493929190611ff0565b60405180910390f35b34801561014b57600080fd5b5061016660048036038101906101619190612035565b610452565b005b34801561017457600080fd5b5061017d61065d565b005b34801561018b57600080fd5b506101946106e5565b6040516101a19190612083565b60405180910390f35b3480156101b657600080fd5b506101bf610709565b6040516101cc919061209e565b60405180910390f35b3480156101e157600080fd5b506101fc60048036038101906101f791906120de565b610733565b60405161020a92919061216b565b60405180910390f35b34801561021f57600080fd5b506102286107ce565b6040516102359190611fb7565b60405180910390f35b34801561024a57600080fd5b5061026560048036038101906102609190612240565b610aad565b005b34801561027357600080fd5b5061028e60048036038101906102899190612035565b610f18565b005b7f000000000000000000000000000000000000000000000000000000000000000081565b60008060028001541480156102cd575043600260000154145b61030c576040517f08c379a000000000000000000000000000000000000000000000000000000000815260040161030390612379565b60405180910390fd5b84600280018190555061031d6107ce565b61035c576040517f08c379a0000000000000000000000000000000000000000000000000000000008152600401610353906123e5565b60405180910390fd5b610392877f0000000000000000000000000000000000000000000000000000000000000000878961038d9190612434565b611010565b6002600080820160009055600182016000905560028201600090556003820160006101000a81549073ffffffffffffffffffffffffffffffffffffffff02191690556004820160006103e49190611bd5565b6005820160006103f49190611bf6565b6006820160006104049190611bd5565b5050600190509695505050505050565b60028060000154908060010154908060020154908060030160009054906101000a900473ffffffffffffffffffffffffffffffffffffffff16905084565b60026000541415610498576040517f08c379a000000000000000000000000000000000000000000000000000000000815260040161048f906124d6565b60405180910390fd5b60026000819055506104a8611165565b73ffffffffffffffffffffffffffffffffffffffff166104c6610709565b73ffffffffffffffffffffffffffffffffffffffff161461051c576040517f08c379a000000000000000000000000000000000000000000000000000000000815260040161051390612542565b60405180910390fd5b60008073ffffffffffffffffffffffffffffffffffffffff168273ffffffffffffffffffffffffffffffffffffffff1614156105645747905061055f338261116d565b6105ec565b8173ffffffffffffffffffffffffffffffffffffffff166370a08231306040518263ffffffff1660e01b815260040161059d919061209e565b602060405180830381865afa1580156105ba573d6000803e3d6000fd5b505050506040513d601f19601f820116820180604052508101906105de9190612577565b90506105eb82338361126d565b5b8173ffffffffffffffffffffffffffffffffffffffff163373ffffffffffffffffffffffffffffffffffffffff167f9207361cc2a04b9c7a06691df1eb87c6a63957ae88bf01d0d18c81e3d12720998360405161064991906125a4565b60405180910390a350600160008190555050565b610665611165565b73ffffffffffffffffffffffffffffffffffffffff16610683610709565b73ffffffffffffffffffffffffffffffffffffffff16146106d9576040517f08c379a00000000000000000000000000000000000000000000000000000000081526004016106d090612542565b60405180910390fd5b6106e360006113c2565b565b7f000000000000000000000000000000000000000000000000000000000000000081565b6000600160009054906101000a900473ffffffffffffffffffffffffffffffffffffffff16905090565b6000806000600181111561074a576107496125bf565b5b87600181111561075d5761075c6125bf565b5b1415610779576107708887878787611488565b915091506107c3565b60018081111561078c5761078b6125bf565b5b87600181111561079f5761079e6125bf565b5b14156107bb576107b2888787878761173c565b915091506107c3565b600080915091505b965096945050505050565b60008060026001015490506000600260030160009054906101000a900473ffffffffffffffffffffffffffffffffffffffff1690506000600160026004018054905061081a91906125ee565b905060005b8181101561094b576108ee6002600401828154811061084157610840612622565b5b9060005260206000200160009054906101000a900473ffffffffffffffffffffffffffffffffffffffff166002600501838154811061088357610882612622565b5b90600052602060002090602091828204019190069054906101000a900460ff168587600260060186815481106108bc576108bb612622565b5b9060005260206000200160009054906101000a900473ffffffffffffffffffffffffffffffffffffffff166000610733565b9050809450506002600601818154811061090b5761090a612622565b5b9060005260206000200160009054906101000a900473ffffffffffffffffffffffffffffffffffffffff169250808061094390612651565b91505061081f565b50600080610a296002600401848154811061096957610968612622565b5b9060005260206000200160009054906101000a900473ffffffffffffffffffffffffffffffffffffffff16600260050185815481106109ab576109aa612622565b5b90600052602060002090602091828204019190069054906101000a900460ff168688600260060188815481106109e4576109e3612622565b5b9060005260206000200160009054906101000a900473ffffffffffffffffffffffffffffffffffffffff166002800154600260010154610a249190612434565b610733565b915091506000821115610a8c578373ffffffffffffffffffffffffffffffffffffffff167f266587d74e8e12ddc83f1fccfbf71645a369bf3fea449095baf08460f78866c160026000015484604051610a8392919061216b565b60405180910390a25b6002800154600260010154610aa19190612434565b81149550505050505090565b610ab5611165565b73ffffffffffffffffffffffffffffffffffffffff16610ad3610709565b73ffffffffffffffffffffffffffffffffffffffff1614610b29576040517f08c379a0000000000000000000000000000000000000000000000000000000008152600401610b2090612542565b60405180910390fd5b600087118015610b665750600073ffffffffffffffffffffffffffffffffffffffff168873ffffffffffffffffffffffffffffffffffffffff1614155b610ba5576040517f08c379a0000000000000000000000000000000000000000000000000000000008152600401610b9c906126e6565b60405180910390fd5b6000868690509050600081118015610bbf57508484905081145b8015610bcd57508282905081145b610c0c576040517f08c379a0000000000000000000000000000000000000000000000000000000008152600401610c0390612778565b60405180910390fd5b8873ffffffffffffffffffffffffffffffffffffffff168383600184610c3291906125ee565b818110610c4257610c41612622565b5b9050602002016020810190610c579190612035565b73ffffffffffffffffffffffffffffffffffffffff1614610cad576040517f08c379a0000000000000000000000000000000000000000000000000000000008152600401610ca49061280a565b60405180910390fd5b6040518060e00160405280438152602001898152602001600081526020018a73ffffffffffffffffffffffffffffffffffffffff168152602001888880806020026020016040519081016040528093929190818152602001838360200280828437600081840152601f19601f820116905080830192505050505050508152602001868680806020026020016040519081016040528093929190818152602001838360200280828437600081840152601f19601f820116905080830192505050505050508152602001848480806020026020016040519081016040528093929190818152602001838360200280828437600081840152601f19601f82011690508083019250505050505050815250600260008201518160000155602082015181600101556040820151816002015560608201518160030160006101000a81548173ffffffffffffffffffffffffffffffffffffffff021916908373ffffffffffffffffffffffffffffffffffffffff1602179055506080820151816004019080519060200190610e3d929190611c1e565b5060a0820151816005019080519060200190610e5a929190611ca8565b5060c0820151816006019080519060200190610e77929190611c1e565b509050507f000000000000000000000000000000000000000000000000000000000000000073ffffffffffffffffffffffffffffffffffffffff166342b0b77c308b8b60006040518563ffffffff1660e01b8152600401610edb94939291906128aa565b600060405180830381600087803b158015610ef557600080fd5b505af1158015610f09573d6000803e3d6000fd5b50505050505050505050505050565b610f20611165565b73ffffffffffffffffffffffffffffffffffffffff16610f3e610709565b73ffffffffffffffffffffffffffffffffffffffff1614610f94576040517f08c379a0000000000000000000000000000000000000000000000000000000008152600401610f8b90612542565b60405180910390fd5b600073ffffffffffffffffffffffffffffffffffffffff168173ffffffffffffffffffffffffffffffffffffffff161415611004576040517f08c379a0000000000000000000000000000000000000000000000000000000008152600401610ffb90612974565b60405180910390fd5b61100d816113c2565b50565b6000808473ffffffffffffffffffffffffffffffffffffffff1663095ea7b360e01b8585604051602401611045929190612994565b604051602081830303815290604052907bffffffffffffffffffffffffffffffffffffffffffffffffffffffff19166020820180517bffffffffffffffffffffffffffffffffffffffffffffffffffffffff83818316178352505050506040516110af9190612a37565b6000604051808303816000865af19150503d80600081146110ec576040519150601f19603f3d011682016040523d82523d6000602084013e6110f1565b606091505b509150915081801561111f575060008151148061111e57508080602001905181019061111d9190612a7a565b5b5b61115e576040517f08c379a000000000000000000000000000000000000000000000000000000000815260040161115590612af3565b60405180910390fd5b5050505050565b600033905090565b60008273ffffffffffffffffffffffffffffffffffffffff1682600067ffffffffffffffff8111156111a2576111a1612b13565b5b6040519080825280601f01601f1916602001820160405280156111d45781602001600182028036833780820191505090505b506040516111e29190612a37565b60006040518083038185875af1925050503d806000811461121f576040519150601f19603f3d011682016040523d82523d6000602084013e611224565b606091505b5050905080611268576040517f08c379a000000000000000000000000000000000000000000000000000000000815260040161125f90612b8e565b60405180910390fd5b505050565b6000808473ffffffffffffffffffffffffffffffffffffffff1663a9059cbb60e01b85856040516024016112a2929190612994565b604051602081830303815290604052907bffffffffffffffffffffffffffffffffffffffffffffffffffffffff19166020820180517bffffffffffffffffffffffffffffffffffffffffffffffffffffffff838183161783525050505060405161130c9190612a37565b6000604051808303816000865af19150503d8060008114611349576040519150601f19603f3d011682016040523d82523d6000602084013e61134e565b606091505b509150915081801561137c575060008151148061137b57508080602001905181019061137a9190612a7a565b5b5b6113bb576040517f08c379a00000000000000000000000000000000000000000000000000000000081526004016113b290612bfa565b60405180910390fd5b5050505050565b6000600160009054906101000a900473ffffffffffffffffffffffffffffffffffffffff16905081600160006101000a81548173ffffffffffffffffffffffffffffffffffffffff021916908373ffffffffffffffffffffffffffffffffffffffff1602179055508173ffffffffffffffffffffffffffffffffffffffff168173ffffffffffffffffffffffffffffffffffffffff167f8be0079c531659141344cd1fd0a4f28419497f9722a3daafe3b4186f6b6457e060405160405180910390a35050565b600080600087905061149b878988611010565b6000600267ffffffffffffffff8111156114b8576114b7612b13565b5b6040519080825280602002602001820160405280156114e65781602001602082028036833780820191505090505b50905087816000815181106114fe576114fd612622565b5b602002602001019073ffffffffffffffffffffffffffffffffffffffff16908173ffffffffffffffffffffffffffffffffffffffff1681525050858160018151811061154d5761154c612622565b5b602002602001019073ffffffffffffffffffffffffffffffffffffffff16908173ffffffffffffffffffffffffffffffffffffffff16815250506060600086141561162e578273ffffffffffffffffffffffffffffffffffffffff166338ed1739898885306008426115bf9190612434565b6040518663ffffffff1660e01b81526004016115df959493929190612cd8565b6000604051808303816000875af11580156115fe573d6000803e3d6000fd5b505050506040513d6000823e3d601f19601f820116820180604052508101906116279190612e52565b90506116c6565b8273ffffffffffffffffffffffffffffffffffffffff16638803dbee878a853060084261165b9190612434565b6040518663ffffffff1660e01b815260040161167b959493929190612cd8565b6000604051808303816000875af115801561169a573d6000803e3d6000fd5b505050506040513d6000823e3d601f19601f820116820180604052508101906116c39190612e52565b90505b806000815181106116da576116d9612622565b5b6020026020010151886116ed91906125ee565b9450600085111561171157611704898b6000611010565b61171089303388611a7d565b5b8060018151811061172557611724612622565b5b602002602001015193505050509550959350505050565b600080600087905061174f878988611010565b600047905060008873ffffffffffffffffffffffffffffffffffffffff166370a08231306040518263ffffffff1660e01b815260040161178f919061209e565b602060405180830381865afa1580156117ac573d6000803e3d6000fd5b505050506040513d601f19601f820116820180604052508101906117d09190612577565b9050600086141561190f5760006040518061010001604052808b73ffffffffffffffffffffffffffffffffffffffff1681526020018973ffffffffffffffffffffffffffffffffffffffff168152602001610bb862ffffff1681526020013073ffffffffffffffffffffffffffffffffffffffff1681526020016008426118579190612434565b81526020018a815260200160008152602001600073ffffffffffffffffffffffffffffffffffffffff168152509050600095508373ffffffffffffffffffffffffffffffffffffffff1663414bf38984836040518363ffffffff1660e01b81526004016118c49190612f79565b60206040518083038185885af11580156118e2573d6000803e3d6000fd5b50505050506040513d601f19601f820116820180604052508101906119079190612577565b945050611a4e565b60006040518061010001604052808b73ffffffffffffffffffffffffffffffffffffffff1681526020018973ffffffffffffffffffffffffffffffffffffffff168152602001610bb862ffffff1681526020013073ffffffffffffffffffffffffffffffffffffffff16815260200160084261198b9190612434565b81526020018881526020018a8152602001600073ffffffffffffffffffffffffffffffffffffffff16815250905060008473ffffffffffffffffffffffffffffffffffffffff1663db3e219885846040518363ffffffff1660e01b81526004016119f59190613037565b60206040518083038185885af1158015611a13573d6000803e3d6000fd5b50505050506040513d601f19601f82011682018060405250810190611a389190612577565b9050808a611a4691906125ee565b965087955050505b6000851115611a7057611a63898b6000611010565b611a6f89303388611a7d565b5b5050509550959350505050565b6000808573ffffffffffffffffffffffffffffffffffffffff166323b872dd60e01b868686604051602401611ab493929190613053565b604051602081830303815290604052907bffffffffffffffffffffffffffffffffffffffffffffffffffffffff19166020820180517bffffffffffffffffffffffffffffffffffffffffffffffffffffffff8381831617835250505050604051611b1e9190612a37565b6000604051808303816000865af19150503d8060008114611b5b576040519150601f19603f3d011682016040523d82523d6000602084013e611b60565b606091505b5091509150818015611b8e5750600081511480611b8d575080806020019051810190611b8c9190612a7a565b5b5b611bcd576040517f08c379a0000000000000000000000000000000000000000000000000000000008152600401611bc4906130d6565b60405180910390fd5b505050505050565b5080546000825590600052602060002090810190611bf39190611d5e565b50565b50805460008255601f016020900490600052602060002090810190611c1b9190611d5e565b50565b828054828255906000526020600020908101928215611c97579160200282015b82811115611c965782518260006101000a81548173ffffffffffffffffffffffffffffffffffffffff021916908373ffffffffffffffffffffffffffffffffffffffff16021790555091602001919060010190611c3e565b5b509050611ca49190611d5e565b5090565b82805482825590600052602060002090601f01602090048101928215611d4d5791602002820160005b83821115611d1e57835183826101000a81548160ff02191690836001811115611cfd57611cfc6125bf565b5b02179055509260200192600101602081600001049283019260010302611cd1565b8015611d4b5782816101000a81549060ff0219169055600101602081600001049283019260010302611d1e565b505b509050611d5a9190611d5e565b5090565b5b80821115611d77576000816000905550600101611d5f565b5090565b600073ffffffffffffffffffffffffffffffffffffffff82169050919050565b6000819050919050565b6000611dc0611dbb611db684611d7b565b611d9b565b611d7b565b9050919050565b6000611dd282611da5565b9050919050565b6000611de482611dc7565b9050919050565b611df481611dd9565b82525050565b6000602082019050611e0f6000830184611deb565b92915050565b6000604051905090565b600080fd5b600080fd5b6000611e3482611d7b565b9050919050565b611e4481611e29565b8114611e4f57600080fd5b50565b600081359050611e6181611e3b565b92915050565b6000819050919050565b611e7a81611e67565b8114611e8557600080fd5b50565b600081359050611e9781611e71565b92915050565b600080fd5b600080fd5b600080fd5b60008083601f840112611ec257611ec1611e9d565b5b8235905067ffffffffffffffff811115611edf57611ede611ea2565b5b602083019150836001820283011115611efb57611efa611ea7565b5b9250929050565b60008060008060008060a08789031215611f1f57611f1e611e1f565b5b6000611f2d89828a01611e52565b9650506020611f3e89828a01611e88565b9550506040611f4f89828a01611e88565b9450506060611f6089828a01611e52565b935050608087013567ffffffffffffffff811115611f8157611f80611e24565b5b611f8d89828a01611eac565b92509250509295509295509295565b60008115159050919050565b611fb181611f9c565b82525050565b6000602082019050611fcc6000830184611fa8565b92915050565b611fdb81611e67565b82525050565b611fea81611e29565b82525050565b60006080820190506120056000830187611fd2565b6120126020830186611fd2565b61201f6040830185611fd2565b61202c6060830184611fe1565b95945050505050565b60006020828403121561204b5761204a611e1f565b5b600061205984828501611e52565b91505092915050565b600061206d82611dc7565b9050919050565b61207d81612062565b82525050565b60006020820190506120986000830184612074565b92915050565b60006020820190506120b36000830184611fe1565b92915050565b600281106120c657600080fd5b50565b6000813590506120d8816120b9565b92915050565b60008060008060008060c087890312156120fb576120fa611e1f565b5b600061210989828a01611e52565b965050602061211a89828a016120c9565b955050604061212b89828a01611e52565b945050606061213c89828a01611e88565b935050608061214d89828a01611e52565b92505060a061215e89828a01611e88565b9150509295509295509295565b60006040820190506121806000830185611fd2565b61218d6020830184611fd2565b9392505050565b60008083601f8401126121aa576121a9611e9d565b5b8235905067ffffffffffffffff8111156121c7576121c6611ea2565b5b6020830191508360208202830111156121e3576121e2611ea7565b5b9250929050565b60008083601f840112612200576121ff611e9d565b5b8235905067ffffffffffffffff81111561221d5761221c611ea2565b5b60208301915083602082028301111561223957612238611ea7565b5b9250929050565b60008060008060008060008060a0898b0312156122605761225f611e1f565b5b600061226e8b828c01611e52565b985050602061227f8b828c01611e88565b975050604089013567ffffffffffffffff8111156122a05761229f611e24565b5b6122ac8b828c01612194565b9650965050606089013567ffffffffffffffff8111156122cf576122ce611e24565b5b6122db8b828c016121ea565b9450945050608089013567ffffffffffffffff8111156122fe576122fd611e24565b5b61230a8b828c01612194565b92509250509295985092959890939650565b600082825260208201905092915050565b7f657865637574654f7065726174696f6e3a2041747461636b206661696c656421600082015250565b600061236360208361231c565b915061236e8261232d565b602082019050919050565b6000602082019050818103600083015261239281612356565b9050919050565b7f657865637574654f7065726174696f6e3a205461736b206661696c6564210000600082015250565b60006123cf601e8361231c565b91506123da82612399565b602082019050919050565b600060208201905081810360008301526123fe816123c2565b9050919050565b7f4e487b7100000000000000000000000000000000000000000000000000000000600052601160045260246000fd5b600061243f82611e67565b915061244a83611e67565b9250827fffffffffffffffffffffffffffffffffffffffffffffffffffffffffffffffff0382111561247f5761247e612405565b5b828201905092915050565b7f5265656e7472616e637947756172643a207265656e7472616e742063616c6c00600082015250565b60006124c0601f8361231c565b91506124cb8261248a565b602082019050919050565b600060208201905081810360008301526124ef816124b3565b9050919050565b7f4f776e61626c653a2063616c6c6572206973206e6f7420746865206f776e6572600082015250565b600061252c60208361231c565b9150612537826124f6565b602082019050919050565b6000602082019050818103600083015261255b8161251f565b9050919050565b60008151905061257181611e71565b92915050565b60006020828403121561258d5761258c611e1f565b5b600061259b84828501612562565b91505092915050565b60006020820190506125b96000830184611fd2565b92915050565b7f4e487b7100000000000000000000000000000000000000000000000000000000600052602160045260246000fd5b60006125f982611e67565b915061260483611e67565b92508282101561261757612616612405565b5b828203905092915050565b7f4e487b7100000000000000000000000000000000000000000000000000000000600052603260045260246000fd5b600061265c82611e67565b91507fffffffffffffffffffffffffffffffffffffffffffffffffffffffffffffffff82141561268f5761268e612405565b5b600182019050919050565b7f646f5461736b3a20496e76616c6964206c6f616e20706172616d657465722100600082015250565b60006126d0601f8361231c565b91506126db8261269a565b602082019050919050565b600060208201905081810360008301526126ff816126c3565b9050919050565b7f646f5461736b3a20496e76616c6964207377617020726f75746572732026206160008201527f7373657473210000000000000000000000000000000000000000000000000000602082015250565b600061276260268361231c565b915061276d82612706565b604082019050919050565b6000602082019050818103600083015261279181612755565b9050919050565b7f646f5461736b3a205377617020726f757465732073686f756c6420626520636c60008201527f6f73656421000000000000000000000000000000000000000000000000000000602082015250565b60006127f460258361231c565b91506127ff82612798565b604082019050919050565b60006020820190508181036000830152612823816127e7565b9050919050565b600082825260208201905092915050565b50565b600061284b60008361282a565b91506128568261283b565b600082019050919050565b6000819050919050565b600061ffff82169050919050565b600061289461288f61288a84612861565b611d9b565b61286b565b9050919050565b6128a481612879565b82525050565b600060a0820190506128bf6000830187611fe1565b6128cc6020830186611fe1565b6128d96040830185611fd2565b81810360608301526128ea8161283e565b90506128f9608083018461289b565b95945050505050565b7f4f776e61626c653a206e6577206f776e657220697320746865207a65726f206160008201527f6464726573730000000000000000000000000000000000000000000000000000602082015250565b600061295e60268361231c565b915061296982612902565b604082019050919050565b6000602082019050818103600083015261298d81612951565b9050919050565b60006040820190506129a96000830185611fe1565b6129b66020830184611fd2565b9392505050565b600081519050919050565b600081905092915050565b60005b838110156129f15780820151818401526020810190506129d6565b83811115612a00576000848401525b50505050565b6000612a11826129bd565b612a1b81856129c8565b9350612a2b8185602086016129d3565b80840191505092915050565b6000612a438284612a06565b915081905092915050565b612a5781611f9c565b8114612a6257600080fd5b50565b600081519050612a7481612a4e565b92915050565b600060208284031215612a9057612a8f611e1f565b5b6000612a9e84828501612a65565b91505092915050565b7f5341000000000000000000000000000000000000000000000000000000000000600082015250565b6000612add60028361231c565b9150612ae882612aa7565b602082019050919050565b60006020820190508181036000830152612b0c81612ad0565b9050919050565b7f4e487b7100000000000000000000000000000000000000000000000000000000600052604160045260246000fd5b7f5354450000000000000000000000000000000000000000000000000000000000600082015250565b6000612b7860038361231c565b9150612b8382612b42565b602082019050919050565b60006020820190508181036000830152612ba781612b6b565b9050919050565b7f5354000000000000000000000000000000000000000000000000000000000000600082015250565b6000612be460028361231c565b9150612bef82612bae565b602082019050919050565b60006020820190508181036000830152612c1381612bd7565b9050919050565b600081519050919050565b600082825260208201905092915050565b6000819050602082019050919050565b612c4f81611e29565b82525050565b6000612c618383612c46565b60208301905092915050565b6000602082019050919050565b6000612c8582612c1a565b612c8f8185612c25565b9350612c9a83612c36565b8060005b83811015612ccb578151612cb28882612c55565b9750612cbd83612c6d565b925050600181019050612c9e565b5085935050505092915050565b600060a082019050612ced6000830188611fd2565b612cfa6020830187611fd2565b8181036040830152612d0c8186612c7a565b9050612d1b6060830185611fe1565b612d286080830184611fd2565b9695505050505050565b6000601f19601f8301169050919050565b612d4c82612d32565b810181811067ffffffffffffffff82111715612d6b57612d6a612b13565b5b80604052505050565b6000612d7e611e15565b9050612d8a8282612d43565b919050565b600067ffffffffffffffff821115612daa57612da9612b13565b5b602082029050602081019050919050565b6000612dce612dc984612d8f565b612d74565b90508083825260208201905060208402830185811115612df157612df0611ea7565b5b835b81811015612e1a5780612e068882612562565b845260208401935050602081019050612df3565b5050509392505050565b600082601f830112612e3957612e38611e9d565b5b8151612e49848260208601612dbb565b91505092915050565b600060208284031215612e6857612e67611e1f565b5b600082015167ffffffffffffffff811115612e8657612e85611e24565b5b612e9284828501612e24565b91505092915050565b600062ffffff82169050919050565b612eb381612e9b565b82525050565b612ec281611e67565b82525050565b612ed181611d7b565b82525050565b61010082016000820151612eee6000850182612c46565b506020820151612f016020850182612c46565b506040820151612f146040850182612eaa565b506060820151612f276060850182612c46565b506080820151612f3a6080850182612eb9565b5060a0820151612f4d60a0850182612eb9565b5060c0820151612f6060c0850182612eb9565b5060e0820151612f7360e0850182612ec8565b50505050565b600061010082019050612f8f6000830184612ed7565b92915050565b61010082016000820151612fac6000850182612c46565b506020820151612fbf6020850182612c46565b506040820151612fd26040850182612eaa565b506060820151612fe56060850182612c46565b506080820151612ff86080850182612eb9565b5060a082015161300b60a0850182612eb9565b5060c082015161301e60c0850182612eb9565b5060e082015161303160e0850182612ec8565b50505050565b60006101008201905061304d6000830184612f95565b92915050565b60006060820190506130686000830186611fe1565b6130756020830185611fe1565b6130826040830184611fd2565b949350505050565b7f5354460000000000000000000000000000000000000000000000000000000000600082015250565b60006130c060038361231c565b91506130cb8261308a565b602082019050919050565b600060208201905081810360008301526130ef816130b3565b905091905056fea264697066735822122002cb7640873485a81935075dbaa34a1d179edd8cfc5005a006d0cd66689d4e7e64736f6c634300080a0033",
  "immutableReferences": {
    "14": [
      {
        "length": 32,
        "start": 658
      }
    ],
    "18": [
      {
        "length": 32,
        "start": 866
      },
      {
        "length": 32,
        "start": 1767
      },
      {
        "length": 32,
        "start": 3709
      }
    ]
  },
  "source": "// SPDX-License-Identifier: MIT\npragma solidity ^0.8.10;\npragma abicoder v2;\n\nimport \"@openzeppelin/contracts/access/Ownable.sol\";\nimport \"@openzeppelin/contracts/security/ReentrancyGuard.sol\";\nimport \"@openzeppelin/contracts/token/ERC20/IERC20.sol\";\nimport \"@aave/core-v3/contracts/flashloan/base/FlashLoanSimpleReceiverBase.sol\";\nimport \"@aave/core-v3/contracts/interfaces/IPool.sol\";\nimport \"@aave/core-v3/contracts/interfaces/IPoolAddressesProvider.sol\";\nimport \"@uniswap/v2-periphery/contracts/interfaces/IUniswapV2Router02.sol\";\nimport \"@uniswap/v3-periphery/contracts/interfaces/ISwapRouter.sol\";\nimport \"@uniswap/v3-periphery/contracts/libraries/TransferHelper.sol\";\n\ncontract ZLFlashLoan is FlashLoanSimpleReceiverBase, ReentrancyGuard, Ownable {\n\n    enum RouterType {\n        UniswapV2,\n        UniswapV3\n    }\n\n    struct ZLTask {\n        uint256 _blockNumber;\n        uint256 _loanAmount;\n        uint256 _loanFee;\n        address _loanAsset;\n        address[] _routers;\n        RouterType[] _routerTypes;\n        address[] _outputAssets;\n    }\n\n    address constant ETHER = address(0);\n    ZLTask public _currentTask;\n\n    event LogWithdraw(\n        address indexed _from,\n        address indexed _assetAddress,\n        uint256 amount\n    );\n    event LogArbitrage(\n        uint256 blockNumber,\n        address indexed _assetAddress,\n        uint256 amount\n    );\n\n    constructor(address poolAddressProvider_)\n        FlashLoanSimpleReceiverBase(\n            IPoolAddressesProvider(poolAddressProvider_)\n        )\n    {}\n\n    function withdraw(address asset_) public nonReentrant onlyOwner {\n        uint256 assetBalance;\n        if (asset_ == ETHER) {\n            assetBalance = address(this).balance;\n\t\t\t\t\t\tTransferHelper.safeTransferETH(msg.sender, assetBalance);\n        } else {\n            assetBalance = IERC20(asset_).balanceOf(address(this));\n\t\t\t\t\t\tTransferHelper.safeTransfer(asset_, msg.sender, assetBalance);\n        }\n        emit LogWithdraw(msg.sender, asset_, assetBalance);\n    }\n\n    function doTask(\n        address loanAsset_,\n        uint256 loanAmount_,\n        address[] calldata routers_,\n        RouterType[] calldata routerTypes_,\n        address[] calldata outputAssets_\n    ) external onlyOwner {\n        require(\n            loanAmount_ > 0 && loanAsset_ != address(0),\n            \"doTask: Invalid loan parameter!\"\n        );\n\n        uint256 size = routers_.length;\n        require(\n            size > 0 &&\n                size == routerTypes_.length &&\n                size == outputAssets_.length,\n            \"doTask: Invalid swap routers & assets!\"\n        );\n        require(\n            outputAssets_[size - 1] == loanAsset_,\n            \"doTask: Swap routes should be closed!\"\n        );\n\n        _currentTask = ZLTask({\n            _blockNumber: block.number,\n            _loanAmount: loanAmount_,\n            _loanAsset: loanAsset_,\n            _loanFee: 0,\n            _routers: routers_,\n            _routerTypes: routerTypes_,\n            _outputAssets: outputAssets_\n        });\n        POOL.flashLoanSimple(address(this), loanAsset_, loanAmount_, \"\", 0);\n    }\n\n    function executeOperation(\n        address asset_,\n        uint256 amount_,\n        uint256 premium_,\n        address initiator_,\n        bytes calldata params_\n    ) external override returns (bool) {\n        require(\n            _currentTask._loanFee == 0 &&\n                _currentTask._blockNumber == block.number,\n            \"executeOperation: Attack failed!\"\n        );\n\n\t\t\t\t_currentTask._loanFee = premium_;\n \t\t\t\trequire(performTask(), \"executeOperation: Task failed!\");\n\n\t\t\t\tTransferHelper.safeApprove(asset_, address(POOL), amount_ + premium_);\n        delete _currentTask;\n        return true;\n    }\n\n    receive() external payable {}\n\n    fallback() external payable {}\n\n    ////////////////////////////////////////////////////////////////////\n    function performTask() public returns (bool) {\n        uint256 inputAmount = _currentTask._loanAmount;\n        address inputAsset = _currentTask._loanAsset;\n\n        uint256 lastIdx = _currentTask._routers.length - 1;\n        for (uint256 idx = 0; idx < lastIdx; idx++) {\n            (, inputAmount) = performSwap(\n                _currentTask._routers[idx],\n                _currentTask._routerTypes[idx],\n                inputAsset,\n                inputAmount,\n                _currentTask._outputAssets[idx],\n                0\n            );\n            inputAsset = _currentTask._outputAssets[idx];\n        }\n\n        (uint256 benefit, uint256 endAmount) = performSwap(\n            _currentTask._routers[lastIdx],\n            _currentTask._routerTypes[lastIdx],\n            inputAsset,\n            inputAmount,\n            _currentTask._outputAssets[lastIdx],\n            _currentTask._loanAmount + _currentTask._loanFee\n        );\n\n        if (benefit > 0) {\n            emit LogArbitrage(_currentTask._blockNumber, inputAsset, benefit);\n        }\n\n        return endAmount == _currentTask._loanAmount + _currentTask._loanFee;\n    }\n\n    function performSwap(\n        address router_,\n        RouterType routerType_,\n        address inputAsset_,\n        uint256 inputAmount_,\n        address outputAsset_,\n        uint256 outputAmount_\n    ) public returns (uint256 inputRest_, uint256 output_) {\n        if (routerType_ == RouterType.UniswapV2) {\n            return\n                _performSwapV2(\n                    router_,\n                    inputAsset_,\n                    inputAmount_,\n                    outputAsset_,\n                    outputAmount_\n                );\n        }\n\n        if (routerType_ == RouterType.UniswapV3) {\n            return\n                _performSwapV3(\n                    router_,\n                    inputAsset_,\n                    inputAmount_,\n                    outputAsset_,\n                    outputAmount_\n                );\n        }\n        return (0, 0);\n    }\n\n    function _performSwapV2(\n        address router_,\n        address inputAsset_,\n        uint256 inputAmount_,\n        address outputAsset_,\n        uint256 outputAmount_\n    ) private returns (uint256 inputRest_, uint256 output_) {\n        IUniswapV2Router02 swapRouter = IUniswapV2Router02(router_);\n\t\t\t\tTransferHelper.safeApprove(inputAsset_, router_, inputAmount_);\n\n        address[] memory path = new address[](2);\n        path[0] = inputAsset_;\n        path[1] = outputAsset_;\n\n        uint256[] memory returnVal;\n        if (outputAmount_ == 0) {\n\t\t\t\t\t\t/*\n            if (inputAsset_ == swapRouter.WETH()) {\n                returnVal = swapRouter.swapExactETHForTokens{\n                    value: inputAmount_\n                }(outputAmount_, path, address(this), block.timestamp + 8);\n            } else if (outputAsset_ == swapRouter.WETH()) {\n                returnVal = swapRouter.swapExactTokensForETH(\n                    inputAmount_,\n                    outputAmount_,\n                    path,\n                    address(this),\n                    block.timestamp + 8\n                );\n            } else */{\n                returnVal = swapRouter.swapExactTokensForTokens(\n                    inputAmount_,\n                    outputAmount_,\n                    path,\n                    address(this),\n                    block.timestamp + 8\n                );\n            }\n        } else {\n            /*if (inputAsset_ == swapRouter.WETH()) {\n                returnVal = swapRouter.swapETHForExactTokens{\n                    value: inputAmount_\n                }(outputAmount_, path, address(this), block.timestamp + 8);\n            } else if (outputAsset_ == swapRouter.WETH()) {\n                returnVal = swapRouter.swapTokensForExactETH(\n                    outputAmount_,\n                    inputAmount_,\n                    path,\n                    address(this),\n                    block.timestamp + 8\n                );\n            } else */{\n                returnVal = swapRouter.swapTokensForExactTokens(\n                    outputAmount_,\n                    inputAmount_,\n                    path,\n                    address(this),\n                    block.timestamp + 8\n                );\n            }\n        }\n\n        inputRest_ = inputAmount_ - returnVal[0];\n        if (inputRest_ > 0) {\n\t\t\t\t\t\tTransferHelper.safeApprove(inputAsset_, router_, 0);\n\t\t\t\t\t\tTransferHelper.safeTransferFrom(inputAsset_, address(this), msg.sender, inputRest_);\n        }\n        output_ = returnVal[1];\n    }\n\n    function _performSwapV3(\n        address router_,\n        address inputAsset_,\n        uint256 inputAmount_,\n        address outputAsset_,\n        uint256 outputAmount_\n    ) private returns (uint256 inputRest_, uint256 output_) {\n        ISwapRouter swapRouter = ISwapRouter(router_);\n\t\t\t\tTransferHelper.safeApprove(inputAsset_, router_, inputAmount_);\n\n\t\t\t\tuint256 bal1 = address(this).balance;\n\t\t\t\tuint256 bal2 = IERC20(inputAsset_).balanceOf(address(this));\n\n\n        if (outputAmount_ == 0) {\n            ISwapRouter.ExactInputSingleParams memory params = ISwapRouter\n                .ExactInputSingleParams({\n                    tokenIn: inputAsset_,\n                    tokenOut: outputAsset_,\n                    fee: 3000,\n                    recipient: address(this),\n                    deadline: block.timestamp + 8,\n                    amountIn: inputAmount_,\n                    amountOutMinimum: 0,\n                    sqrtPriceLimitX96: 0\n                });\n            inputRest_ = 0;\n            output_ = swapRouter.exactInputSingle{value: bal1}(params);\n        } else {\n            ISwapRouter.ExactOutputSingleParams memory params = ISwapRouter\n                .ExactOutputSingleParams({\n                    tokenIn: inputAsset_,\n                    tokenOut: outputAsset_,\n                    fee: 3000,\n                    recipient: address(this),\n                    deadline: block.timestamp + 8,\n                    amountOut: outputAmount_,\n                    amountInMaximum: inputAmount_,\n                    sqrtPriceLimitX96: 0\n                });\n            uint256 used = swapRouter.exactOutputSingle{value: bal1}(params);\n            inputRest_ = inputAmount_ - used;\n            output_ = outputAmount_;\n        }\n\n\t\t\t\tif (inputRest_ > 0) {\n\t\t\t\t\t\tTransferHelper.safeApprove(inputAsset_, router_, 0);\n\t\t\t\t\t\tTransferHelper.safeTransferFrom(inputAsset_, address(this), msg.sender, inputRest_);\n\t\t\t\t}\n    }\n}\n",
  "sourcePath": "/Volumes/WORK/work/flashloan/aave3/packages/contract/contracts/ZLFlashLoan.sol",
  "compiler": {
    "name": "solc",
    "version": "0.8.10+commit.fc410830.Emscripten.clang"
  },
  "schemaVersion": "3.4.6",
  "updatedAt": "2022-04-13T03:43:00.400Z",
  "networkType": "ethereum",
  "devdoc": {
    "kind": "dev",
    "methods": {
      "owner()": {
        "details": "Returns the address of the current owner."
      },
      "renounceOwnership()": {
        "details": "Leaves the contract without owner. It will not be possible to call `onlyOwner` functions anymore. Can only be called by the current owner. NOTE: Renouncing ownership will leave the contract without an owner, thereby removing any functionality that is only available to the owner."
      },
      "transferOwnership(address)": {
        "details": "Transfers ownership of the contract to a new account (`newOwner`). Can only be called by the current owner."
      }
    },
    "version": 1
  },
  "userdoc": {
    "kind": "user",
    "methods": {},
    "version": 1
  }
}